:100000000C942A000C943F000C943F000C943F0089
:100010000C943F000C943F000C943F000C943F0064
:100020000C943F000C943F000C943F000C943F0054
:100030000C943F000C943F000C943F000C943F0044
:100040000C943F000C943F000C943F000C943F0034
:100050000C943F0011241FBECFE5D8E0DEBFCDBF1A
:1000600010E0A0E6B0E0E0EEF0E302C005900D92F3
:10007000AC3CB107D9F70E94A4100C946E180C94F4
:100080000000EF92FF920F931F937B018C0120E001
:1000900030E040E05FE40E94ED0388238CF0C8016B
:1000A000B70120E030E040E05FE40E94B9010E9427
:1000B0004D049B01AC01205030404040504806C0E8
:1000C000C801B7010E944D049B01AC01B901CA01EE
:1000D0001F910F91FF90EF900895A0E0B0E0E3E74B
:1000E000F0E00C943718DC012B01FA019C9192305E
:1000F00008F439C1EB018881823008F433C19430AF
:1001000069F4843009F02FC111969C91119789816F
:10011000981709F428C1ACE8B0E025C1843009F48F
:1001200021C18230A9F4923009F01DC19A01AD01BC
:1001300088E0EA010990AE01E90109929E0181502F
:10014000C1F7E201898111969C918923818308C1BD
:10015000923009F407C112962D903C901397EB0151
:100160008A819B811496AD90BD90CD90DC901797BD
:10017000EC80FD800E811F819101281B390BB90194
:1001800037FF04C066277727621B730B6032710547
:100190000CF061C0121613066CF537014801062EEB
:1001A00004C096948794779467940A94D2F721E0D8
:1001B00030E040E050E004C0220F331F441F551FC1
:1001C0006A95D2F721503040404050402E213F21C7
:1001D00040235123211531054105510521F021E02E
:1001E00030E040E050E079018A01E628F72808294C
:1001F00019293CC0232BD1F1260E371E35014601AB
:10020000062E04C096948794779467940A94D2F744
:1002100021E030E040E050E004C0220F331F441FD3
:10022000551F6A95D2F721503040404050402A2156
:100230003B214C215D21211531054105510521F05E
:1002400021E030E040E050E059016A01A628B728DB
:10025000C828D9280BC0821593052CF01C01AA24AC
:10026000BB24650103C0EE24FF24870111969C91F5
:10027000D20111968C91981709F445C0992339F051
:10028000A80197012A193B094C095D0906C0A6017E
:1002900095012E193F09400B510B57FD08C01182E3
:1002A0003382228224833583468357831DC081E0B5
:1002B00081833382228288279927DC01821B930B5A
:1002C000A40BB50B84839583A683B7830DC0220F3F
:1002D000331F441F551F24833583468357838281F0
:1002E000938101979383828324813581468157814D
:1002F000DA01C9010197A109B1098F5F9F4FAF4F83
:10030000BF4328F30BC0918333822282EA0CFB1C8B
:100310000C1D1D1DE482F5820683178383E0808314
:10032000248135814681578157FF1AC0C901AA2708
:1003300097FDA095BA2F81709070A070B0705695FF
:10034000479537952795822B932BA42BB52B848328
:100350009583A683B7838281938101969383828359
:10036000DF0101C0D201CD01CDB7DEB7E2E10C94CF
:100370005318A0E2B0E0EFEBF1E00C94431869836E
:100380007A838B839C832D833E834F835887E9E058
:10039000EE2EF12CEC0EFD1ECE010196B7010E944F
:1003A00076058E010F5E1F4FCE010596B8010E94A3
:1003B00076058A8991E089278A8BC701B801AE0149
:1003C000475E5F4F0E946D000E94A104A096E6E088
:1003D0000C945F18A0E2B0E0E0EFF1E00C94431859
:1003E00069837A838B839C832D833E834F835887D5
:1003F000F9E0EF2EF12CEC0EFD1ECE010196B701B7
:100400000E9476058E010F5E1F4FCE010596B80142
:100410000E947605C701B801AE01475E5F4F0E949A
:100420006D000E94A104A096E6E00C945F18A0E283
:10043000B0E0EDE1F2E00C94371869837A838B83A6
:100440009C832D833E834F835887CE010196BE0146
:10045000675F7F4F0E947605CE010596BE016F5EF5
:100460007F4F0E9476059985923088F08989823085
:10047000C8F0943019F4823051F404C0843029F467
:10048000923081F48CE890E0C6C0923049F420E0CC
:100490009A858A89981321E02A87CE010996BBC0E4
:1004A000823049F420E09A858A89981321E02A8BCA
:1004B000CE014196B0C02D843E844F8458886D880B
:1004C0007E888F88988CEE24FF248701AA24BB2481
:1004D000650140E050E060E070E0E0E0F0E0C10184
:1004E00081709070892BE9F0E60CF71C081D191D2E
:1004F0009A01AB012A0D3B1D4C1D5D1D80E090E073
:10050000A0E0B0E0E614F7040805190520F481E046
:1005100090E0A0E0B0E0BA01A901480F591F6A1F9E
:100520007B1FAA0CBB1CCC1CDD1C97FE08C081E005
:1005300090E0A0E0B0E0A82AB92ACA2ADB2A3196C6
:10054000E032F10549F0660C771C881C991C569422
:10055000479437942794C3CFFA85EA892B893C893D
:100560008B859C85280F391F2E5F3F4F17C0CA010E
:1005700081709070892B61F016950795F794E79438
:1005800080E090E0A0E0B0E8E82AF92A0A2B1B2BD3
:1005900076956795579547952F5F3F4F77FDE7CF46
:1005A0000CC0440F551F661F771F17FD4160EE0CEE
:1005B000FF1C001F111F21503040403090E05907B0
:1005C00090E0690790E4790760F32B8F3C8FDB01A3
:1005D000CA018F779070A070B07080349105A1052A
:1005E000B10561F447FD0AC0E114F10401051105EC
:1005F00029F0405C5F4F6F4F7F4F40781A8EFE1797
:1006000011F081E08A8F4D8F5E8F6F8F78A383E02A
:10061000898FCE0149960E94A104A096E2E10C9434
:100620005318A8E1B0E0E7E1F3E00C943F186983C8
:100630007A838B839C832D833E834F835887B9E0D5
:10064000EB2EF12CEC0EFD1ECE010196B7010E949F
:1006500076058E010F5E1F4FCE010596B8010E94F0
:1006600076052985223008F47EC03989323010F4AD
:10067000B8017CC08A859A8989278A87243011F03D
:10068000223031F4231709F06EC06CE870E06EC0C0
:10069000343039F41D861E861F86188A1C861B86F8
:1006A00004C0323021F484E08987B7015FC02B8514
:1006B0003C858B899C89281B390B3C872B87ED84D3
:1006C000FE840F851889AD88BE88CF88D88CEA143F
:1006D000FB040C051D0540F4EE0CFF1C001F111F50
:1006E000215030403C872B8720E030E040E050E054
:1006F00080E090E0A0E0B0E460E070E0EA14FB0489
:100700000C051D0540F0282B392B4A2B5B2BEA18D2
:10071000FB080C091D09B695A79597958795EE0CD2
:10072000FF1C001F111F6F5F7F4F6F31710531F785
:10073000DA01C9018F779070A070B0708034910594
:10074000A105B10561F427FD0AC0E114F10401051A
:10075000110529F0205C3F4F4F4F5F4F20782D87C8
:100760003E874F87588BBE01675F7F4FCB010E944A
:10077000A1046896EAE00C945B18A8E1B0E0E3EC11
:10078000F3E00C94431869837A838B839C832D83D5
:100790003E834F83588789E0E82EF12CEC0EFD1E36
:1007A000CE010196B7010E9476058E010F5E1F4FA4
:1007B000CE010596B8010E9476058985823040F009
:1007C0008989823028F0C701B8010E94EE0501C076
:1007D0008FEF6896E6E00C945F18A8E1B0E0E3EFD5
:1007E000F3E00C94431869837A838B839C832D8375
:1007F0003E834F83588789E0E82EF12CEC0EFD1ED6
:10080000CE010196B7010E9476058E010F5E1F4F43
:10081000CE010596B8010E9476058985823040F0A8
:100820008989823028F0C701B8010E94EE0501C015
:100830008FEF6896E6E00C945F18A8E1B0E0E3E281
:10084000F4E00C94431869837A838B839C832D8313
:100850003E834F83588789E0E82EF12CEC0EFD1E75
:10086000CE010196B7010E9476058E010F5E1F4FE3
:10087000CE010596B8010E9476058985823040F048
:100880008989823028F0C701B8010E94EE0501C0B5
:1008900081E06896E6E00C945F18ACE0B0E0E3E538
:1008A000F4E00C94471869837A838B839C83CE0190
:1008B0000196BE016B5F7F4F0E9476058D8182306D
:1008C00061F1823050F1843021F48E81882351F11E
:1008D0002EC02F81388537FD20C06E812F31310524
:1008E0001CF06623F9F023C08EE190E0821B930B8D
:1008F00029853A854B855C8504C056954795379583
:1009000027958A95D2F76623B1F05095409530959A
:1009100021953F4F4F4F5F4F0EC020E030E040E049
:1009200050E009C02FEF3FEF4FEF5FE704C020E03A
:1009300030E040E050E8B901CA012C96E2E00C94A6
:100940006318DF92EF92FF920F931F93FC01E480F4
:10095000F58006811781D1808081823048F480E063
:1009600090E0A0E1B0E0E82AF92A0A2B1B2BA5C0F1
:10097000843009F49FC0823021F4EE24FF248701E3
:1009800005C0E114F1040105110519F4E0E0F0E0FF
:1009900096C0628173819FEF623879070CF05BC06B
:1009A00022E83FEF261B370B2A3131052CF020E0DF
:1009B00030E040E050E02AC0B801A701022E04C098
:1009C00076956795579547950A94D2F781E090E020
:1009D000A0E0B0E004C0880F991FAA1FBB1F2A9592
:1009E000D2F70197A109B1098E219F21A023B1233C
:1009F0000097A105B10521F081E090E0A0E0B0E012
:100A00009A01AB01282B392B4A2B5B2BDA01C90148
:100A10008F779070A070B07080349105A105B105FA
:100A200039F427FF09C0205C3F4F4F4F5F4F04C090
:100A3000215C3F4F4F4F5F4FE0E0F0E02030A0E0FF
:100A40003A07A0E04A07A0E45A0710F0E1E0F0E01E
:100A500079018A0127C06038710564F5FB01E1580E
:100A6000FF4FD801C7018F779070A070B0708034AD
:100A70009105A105B10539F4E7FE0DC080E490E0D1
:100A8000A0E0B0E004C08FE390E0A0E0B0E0E80EAA
:100A9000F91E0A1F1B1F17FF05C016950795F7942F
:100AA000E794319687E016950795F794E7948A9531
:100AB000D1F705C0EE24FF248701EFEFF0E06E2FA1
:100AC000679566276795902F9F77D794DD24D794F5
:100AD0008E2F8695492F462B582F5D29B701CA01C5
:100AE0001F910F91FF90EF90DF900895FC01DB01C3
:100AF000408151812281622F6F7770E0221F22276F
:100B0000221F9381892F880F822B282F30E0991F75
:100B10009927991F11969C93119721153105A9F5D5
:100B2000411551056105710511F482E037C082E875
:100B30009FEF13969C938E9312979A01AB0167E0F7
:100B4000220F331F441F551F6A95D1F783E08C9302
:100B50000DC0220F331F441F551F12968D919C917B
:100B60001397019713969C938E931297203080E0F1
:100B7000380780E0480780E4580758F314962D930F
:100B80003D934D935C93179708952F3F310579F46A
:100B9000411551056105710519F484E08C930895A0
:100BA00064FF03C081E08C9312C01C9210C02F57C9
:100BB000304013963C932E93129783E08C9387E0FA
:100BC000440F551F661F771F8A95D1F770641496DE
:100BD0004D935D936D937C93179708951F93DC015C
:100BE000FB019C91923008F447C08081823008F468
:100BF00043C0943051F411961C91843099F5818151
:100C0000682F70E0611B71093FC0843021F0923081
:100C100031F48230B9F18181882389F12DC0119698
:100C20001C9111978230F1F081811817D9F4129636
:100C30002D913C911397828193818217930794F0B1
:100C400028173907BCF014968D919D910D90BC9199
:100C5000A02D2481358146815781281739074A07FD
:100C60005B0718F4112341F00AC082179307A40709
:100C7000B50740F4112319F061E070E005C06FEF93
:100C80007FEF02C060E070E0CB011F910895AF924A
:100C9000CF92EF920F93DF93CF93CDB7DEB7299723
:100CA0000FB6F894DEBF0FBECDBF8A836B834C8333
:100CB0002D830E83EF82C886A98619828A818130AE
:100CC00021F489818160898303C089818E7F898332
:100CD0008B81813021F489818260898303C089817D
:100CE0008D7F89838C81813021F48981846089831F
:100CF00003C089818B7F89838D81813021F4898133
:100D00008860898303C08981877F89838E81813050
:100D100021F489818061898303C089818F7E8983E1
:100D20008F81813021F489818062898303C0898128
:100D30008F7D89838885813021F4898180648983CE
:100D400003C089818F7B89838985813021F48981E2
:100D50008068898303C089818F77898389812996F7
:100D60000FB6F894DEBF0FBECDBFCF91DF910F91CC
:100D7000EF90CF90AF9008958F929F92AF92CF92C5
:100D8000EF920F93DF93CF93CDB7DEB70F2EFAE339
:100D90008F2E9924F02D80E060E040E020E001E01B
:100DA000EE24E394CC24C394AA24A3940E9447067F
:100DB000F40180830F2EF7E38F2E9924F02D80E02D
:100DC00060E040E020E000E0EE24CC24AA240E9471
:100DD0004706F40180830F2EF4E38F2E9924F02D23
:100DE00081E061E041E020E000E0EE24CC24AA2490
:100DF0000E944706F40180830F2EF1E38F2E992481
:100E0000F02D80E060E040E020E000E0EE24CC2423
:100E1000AA240E944706F4018083CF91DF910F91AD
:100E2000EF90CF90AF909F908F900895DF93CF93E6
:100E300000D000D000D0CDB7DEB789836A834B8362
:100E40008981843008F0E4C08A81883008F0DDC0F0
:100E50008B81882321F08B81813009F0D4C0898176
:100E6000282F30E03E832D838D819E818130910536
:100E700009F443C02D813E81223031052CF48D814F
:100E80009E81009771F0BCC02D813E8122303105DA
:100E900009F45FC08D819E818330910509F485C07E
:100EA000AFC08B818130A1F4AAE3B0E0EAE3F0E0C7
:100EB0008081482F8A81282F30E081E090E0022E47
:100EC00002C0880F991F0A94E2F7842B8C9398C074
:100ED000AAE3B0E0EAE3F0E08081482F8A81282F7E
:100EE00030E081E090E0022E02C0880F991F0A9442
:100EF000E2F7809584238C9383C08B818130A1F4A9
:100F0000A7E3B0E0E7E3F0E08081482F8A81282F53
:100F100030E081E090E0022E02C0880F991F0A9411
:100F2000E2F7842B8C936CC0A7E3B0E0E7E3F0E03A
:100F30008081482F8A81282F30E081E090E0022EC6
:100F400002C0880F991F0A94E2F7809584238C933E
:100F500057C08B818130A1F4A4E3B0E0E4E3F0E07A
:100F60008081482F8A81282F30E081E090E0022E96
:100F700002C0880F991F0A94E2F7842B8C9340C01B
:100F8000A4E3B0E0E4E3F0E08081482F8A81282FD9
:100F900030E081E090E0022E02C0880F991F0A9491
:100FA000E2F7809584238C932BC08B818130A1F450
:100FB000A1E3B0E0E1E3F0E08081482F8A81282FAF
:100FC00030E081E090E0022E02C0880F991F0A9461
:100FD000E2F7842B8C9314C0A1E3B0E0E1E3F0E0EE
:100FE0008081482F8A81282F30E081E090E0022E16
:100FF00002C0880F991F0A94E2F7809584238C938E
:1010000093E09C8307C01C8205C021E02C8302C0B2
:1010100032E03C838C8126960FB6F894DEBF0FBE7B
:10102000CDBFCF91DF910895DF93CF9300D000D053
:1010300000D0CDB7DEB789837B836A838981843012
:1010400008F03DC08A819B818F3F910509F0A8F58A
:101050008981282F30E03E832D838D819E818130D0
:101060009105D1F02D813E81223031052CF48D8106
:101070009E81009761F01EC02D813E812230310596
:1010800081F08D819E818330910581F013C0EAE368
:10109000F0E08A8180830EC0E7E3F0E08A818083FC
:1010A00009C0E4E3F0E08A81808304C0E1E3F0E07A
:1010B0008A81808393E09C8304C01C8202C022E06A
:1010C0002C838C8126960FB6F894DEBF0FBECDBF61
:1010D000CF91DF910895DF93CF9300D000D000D05F
:1010E000CDB7DEB789836A834B838981843008F06A
:1010F000E4C08A81883008F0DDC08B81882321F02C
:101100008B81813009F0D4C08981282F30E03E8363
:101110002D838D819E818130910509F443C02D81FD
:101120003E81223031052CF48D819E81009771F033
:10113000BCC02D813E812230310509F45FC08D8114
:101140009E818330910509F485C0AFC08B818130C9
:10115000A1F4ABE3B0E0EBE3F0E08081482F8A81BB
:10116000282F30E081E090E0022E02C0880F991F06
:101170000A94E2F7842B8C9398C0ABE3B0E0EBE3E6
:10118000F0E08081482F8A81282F30E081E090E0D4
:10119000022E02C0880F991F0A94E2F780958423DB
:1011A0008C9383C08B818130A1F4A8E3B0E0E8E3A5
:1011B000F0E08081482F8A81282F30E081E090E0A4
:1011C000022E02C0880F991F0A94E2F7842B8C9399
:1011D0006CC0A8E3B0E0E8E3F0E08081482F8A81AA
:1011E000282F30E081E090E0022E02C0880F991F86
:1011F0000A94E2F7809584238C9357C08B818130C9
:10120000A1F4A5E3B0E0E5E3F0E08081482F8A8116
:10121000282F30E081E090E0022E02C0880F991F55
:101220000A94E2F7842B8C9340C0A5E3B0E0E5E399
:10123000F0E08081482F8A81282F30E081E090E023
:10124000022E02C0880F991F0A94E2F7809584232A
:101250008C932BC08B818130A1F4A2E3B0E0E2E358
:10126000F0E08081482F8A81282F30E081E090E0F3
:10127000022E02C0880F991F0A94E2F7842B8C93E8
:1012800014C0A2E3B0E0E2E3F0E08081482F8A815D
:10129000282F30E081E090E0022E02C0880F991FD5
:1012A0000A94E2F7809584238C9393E09C8307C093
:1012B0001C8205C021E02C8302C032E03C838C817B
:1012C00026960FB6F894DEBF0FBECDBFCF91DF914B
:1012D0000895DF93CF9300D000D000D0CDB7DEB714
:1012E00089837B836A838A819B818430910508F09E
:1012F0003DC08A819B818F3F910509F0A8F58981C6
:10130000282F30E03E832D838D819E818130910591
:10131000D1F02D813E81223031052CF48D819E81CA
:10132000009761F01EC02D813E812230310581F091
:101330008D819E818330910581F013C0EBE3F0E055
:101340008A8180830EC0E8E3F0E08A81808309C04F
:10135000E5E3F0E08A81808304C0E2E3F0E08A8183
:10136000808393E09C8304C01C8202C022E02C8313
:101370008C8126960FB6F894DEBF0FBECDBFCF91FD
:10138000DF910895DF93CF93CDB7DEB728970FB6DF
:10139000F894DEBF0FBECDBF89836A835C834B8325
:1013A0008981843008F078C08A81883008F071C063
:1013B0008981282F30E03F832E834E815F81413029
:1013C000510559F18E819F818230910534F42E812F
:1013D0003F812115310569F05BC04E815F8142304C
:1013E000510579F18E819F818330910509F43DC0CB
:1013F0004FC0E9E3F0E08081282F30E08A81882F18
:1014000090E0A90102C0559547958A95E2F7CA0177
:101410008170EB81FC8180833BC0E6E3F0E080815A
:10142000282F30E08A81882F90E0A90102C05595CD
:1014300047958A95E2F7CA018170EB81FC81808330
:1014400027C0E3E3F0E08081282F30E08A81882FF5
:1014500090E0A90102C0559547958A95E2F7CA0127
:101460008170EB81FC81808313C0E0E3F0E0808138
:10147000282F30E08A81882F90E0A90102C055957D
:1014800047958A95E2F7CA018170EB81FC818083E0
:1014900007C051E05D8302C082E08D839D81988703
:1014A000888528960FB6F894DEBF0FBECDBFCF91CA
:1014B000DF9108950F931F93DF93CF93CDB7DEB7DE
:1014C000CC54D0400FB6F894DEBF0FBECDBFFE01A6
:1014D000E75BFF4F80E090E0ACE0B2E48083918373
:1014E000A283B3838E010B5B1F4FFE01E75BFF4FAF
:1014F000608171818281938120E030E04AEF54E481
:101500000E941702DC01CB01F80180839183A28342
:10151000B383FE01EB5BFF4F608171818281938118
:1015200020E030E040E85FE30E941D04882344F49B
:10153000FE01ED5BFF4F81E090E09183808364C00A
:10154000FE01EB5BFF4F608171818281938120E01E
:101550003FEF4FE757E40E94BD0318160CF043C05D
:10156000FE01E75BFF4F608171818281938120E002
:1015700030E040E251E40E941702DC01CB018E0111
:101580000D5B1F4FBC01CD010E944100DC01CB016E
:10159000F801918380831FC0FE01EF5BFF4F88EC51
:1015A00090E091838083FE01EF5BFF4F808191810A
:1015B0000197F1F7FE01EF5BFF4F91838083DE011E
:1015C000AD5BBF4FFE01ED5BFF4F808191810197C5
:1015D00011969C938E93FE01ED5BFF4F808191816C
:1015E0000097D1F624C08E010D5B1F4FFE01EB5B0F
:1015F000FF4F60817181828193810E944100DC01F3
:10160000CB01F80191838083FE01ED5BFF4F808168
:101610009181FE01FF9691838083FE01FF96808178
:1016200091810197F1F7FE01FF969183808383E317
:101630000E94260D82E30E94260D88E20E94260D5C
:1016400088E20E94260D80E090E0A0E2B2E48BAF39
:101650009CAFADAFBEAF6BAD7CAD8DAD9EAD2BEA9B
:101660003AEA4AE250E40E941702DC01CB018FAB58
:1016700098AFA9AFBAAF6FA978AD89AD9AAD20E0A8
:1016800030E040E85FE30E941D0488231CF481E001
:101690008EAB91C06FA978AD89AD9AAD20E030E0F6
:1016A0004FE753E40E94BD0318160CF07BC06BADEE
:1016B0007CAD8DAD9EAD20E030E04AE754E40E9461
:1016C0001103DC01CB018AAB9BABACABBDAB6AA910
:1016D0007BA98CA99DA920E030E04AEF54E40E9448
:1016E0001702DC01CB018EA79FA7A8ABB9AB6EA5F3
:1016F0007FA588A999A920E030E040E85FE30E9437
:101700001D0488232CF481E090E09DA78CA73FC0A6
:101710006EA57FA588A999A920E03FEF4FE757E480
:101720000E94BD0318164CF56AA97BA98CA99DA936
:1017300020E030E040E251E40E941702DC01CB01DE
:10174000BC01CD010E944100DC01CB019DA78CA70B
:101750000FC088EC90E09BA78AA78AA59BA501975C
:10176000F1F79BA78AA78CA59DA501979DA78CA79C
:101770008CA59DA5009769F724C06EA57FA588A9B3
:1017800099A90E944100DC01CB019DA78CA78CA5E3
:101790009DA599A788A788A599A50197F1F799A76D
:1017A00088A70FC06FA978AD89AD9AAD0E9441009E
:1017B000DC01CB018EAB8EA98FA38FA18A95F1F7A7
:1017C0008FA38CE00E94260D80E090E0A0E2B2E4BE
:1017D0008BA39CA3ADA3BEA36BA17CA18DA19EA155
:1017E0002BEA3AEA4AE250E40E941702DC01CB01FC
:1017F0008F8F98A3A9A3BAA36F8D78A189A19AA16D
:1018000020E030E040E85FE30E941D0488231CF4E0
:1018100081E08E8F91C06F8D78A189A19AA120E07F
:1018200030E04FE753E40E94BD0318160CF07BC074
:101830006BA17CA18DA19EA120E030E04AE754E499
:101840000E941103DC01CB018A8F9B8FAC8FBD8F6F
:101850006A8D7B8D8C8D9D8D20E030E04AEF54E4C5
:101860000E941702DC01CB018E8B9F8BA88FB98F52
:101870006E897F89888D998D20E030E040E85FE3B4
:101880000E941D0488232CF481E090E09D8B8C8BBA
:101890003FC06E897F89888D998D20E03FEF4FE7AB
:1018A00057E40E94BD0318164CF56A8D7B8D8C8D14
:1018B0009D8D20E030E040E251E40E941702DC01FF
:1018C000CB01BC01CD010E944100DC01CB019D8B0D
:1018D0008C8B0FC088EC90E09B8B8A8B8A899B89CC
:1018E0000197F1F79B8B8A8B8C899D8901979D8B42
:1018F0008C8B8C899D89009769F724C06E897F89BC
:10190000888D998D0E944100DC01CB019D8B8C8BD1
:101910008C899D89998B888B888999890197F1F7A2
:10192000998B888B0FC06F8D78A189A19AA10E9495
:101930004100DC01CB018E8F8E8D8F878F858A953C
:10194000F1F78F8781E00E94260D80E090E0A0E013
:10195000B0E48B879C87AD87BE876B857C858D8542
:101960009E8520E030E04AEF54E40E941702DC013B
:10197000CB018F839887A987BA876F8178858985FE
:101980009A8520E030E040E85FE30E941D04882350
:101990002CF481E090E09E838D833FC06F81788539
:1019A00089859A8520E03FEF4FE757E40E94BD0309
:1019B00018164CF56B857C858D859E8520E030E082
:1019C00040E251E40E941702DC01CB01BC01CD01D1
:1019D0000E944100DC01CB019E838D830FC088EC07
:1019E00090E09C838B838B819C810197F1F79C8392
:1019F0008B838D819E8101979E838D838D819E81B6
:101A0000009769F714C06F81788589859A850E944F
:101A10004100DC01CB019E838D838D819E819A8361
:101A2000898389819A810197F1F79A83898386E076
:101A30000E94260DC45BDF4F0FB6F894DEBF0FBEC9
:101A4000CDBFCF91DF911F910F910895DF93CF9379
:101A50000F92CDB7DEB7898382E090E060E070E05E
:101A600040E050E00E946B0889810E943B0D0F907E
:101A7000CF91DF910895DF93CF93CDB7DEB7E19794
:101A80000FB6F894DEBF0FBECDBF89AB82E090E009
:101A900061E070E040E050E00E946B0889A9829507
:101AA0008F70882F90E09C012170307080E090E072
:101AB00064E070E0A9010E946B0889A9829586956F
:101AC0008770882F90E09C012170307080E090E05A
:101AD00065E070E0A9010E946B0889A9829586954E
:101AE00086958370882F90E09C012170307080E093
:101AF00090E066E070E0A9010E946B0889A9881F48
:101B00008827881F282F30E080E090E067E070E0B1
:101B1000A9010E946B0882E090E062E070E041E081
:101B200050E00E946B0880E090E0A0E8BFE38DA742
:101B30009EA7AFA7B8AB6DA57EA58FA598A92BEAE8
:101B40003AEA4AE250E40E941702DC01CB0189A77D
:101B50009AA7ABA7BCA769A57AA58BA59CA520E0F1
:101B600030E040E85FE30E941D0488231CF481E01C
:101B700088A791C069A57AA58BA59CA520E030E037
:101B80004FE753E40E94BD0318160CF07BC06DA50F
:101B90007EA58FA598A920E030E04AE754E40E9492
:101BA0001103DC01CB018CA39DA3AEA3BFA36CA149
:101BB0007DA18EA19FA120E030E04AEF54E40E9475
:101BC0001702DC01CB0188A399A3AAA3BBA368A138
:101BD00079A18AA19BA120E030E040E85FE30E9468
:101BE0001D0488232CF481E090E09F8F8E8F3FC0EE
:101BF00068A179A18AA19BA120E03FEF4FE757E4BC
:101C00000E94BD0318164CF56CA17DA18EA19FA169
:101C100020E030E040E251E40E941702DC01CB01F9
:101C2000BC01CD010E944100DC01CB019F8F8E8F52
:101C30000FC088EC90E09D8F8C8F8C8D9D8D0197CF
:101C4000F1F79D8F8C8F8E8D9F8D01979F8F8E8F3B
:101C50008E8D9F8D009769F724C068A179A18AA114
:101C60009BA10E944100DC01CB019F8F8E8F8E8D46
:101C70009F8D9B8F8A8F8A8D9B8D0197F1F79B8F0C
:101C80008A8F0FC069A57AA58BA59CA50E944100EB
:101C9000DC01CB0188A788A5898F898D8A95F1F70A
:101CA000898F82E090E062E070E040E050E00E94C6
:101CB0006B0889A9882F90E09C012170307080E02A
:101CC00090E064E070E0A9010E946B0889A9869504
:101CD000882F90E09C012170307080E090E065E0FA
:101CE00070E0A9010E946B0889A986958695882FC6
:101CF00090E09C012170307080E090E066E070E040
:101D0000A9010E946B0889A9869586958695882FDA
:101D100090E09C012170307080E090E067E070E01E
:101D2000A9010E946B0882E090E062E070E041E06F
:101D300050E00E946B0880E090E0A0E8BFE38D8B4C
:101D40009E8BAF8BB88F6D897E898F89988D2BEA9A
:101D50003AEA4AE250E40E941702DC01CB01898B87
:101D60009A8BAB8BBC8B69897A898B899C8920E0A3
:101D700030E040E85FE30E941D0488231CF481E00A
:101D8000888B91C069897A898B899C8920E030E0B1
:101D90004FE753E40E94BD0318160CF07BC06D8919
:101DA0007E898F89988D20E030E04AE754E40E94D4
:101DB0001103DC01CB018C879D87AE87BF876C85C3
:101DC0007D858E859F8520E030E04AEF54E40E94B7
:101DD0001702DC01CB0188879987AA87BB876885B2
:101DE00079858A859B8520E030E040E85FE30E94AA
:101DF0001D0488232CF481E090E09F838E833FC0F4
:101E0000688579858A859B8520E03FEF4FE757E419
:101E10000E94BD0318164CF56C857D858E859F85C7
:101E200020E030E040E251E40E941702DC01CB01E7
:101E3000BC01CD010E944100DC01CB019F838E8358
:101E40000FC088EC90E09D838C838C819D810197ED
:101E5000F1F79D838C838E819F8101979F838E8371
:101E60008E819F81009769F724C0688579858A856E
:101E70009B850E944100DC01CB019F838E838E8174
:101E80009F819B838A838A819B810197F1F79B8342
:101E90008A830FC069897A898B899C890E94410055
:101EA000DC01CB01888B8889898389818A95F1F748
:101EB000898382E090E062E070E040E050E00E94C0
:101EC0006B08E1960FB6F894DEBF0FBECDBFCF9181
:101ED000DF910895DF93CF930F92CDB7DEB789835B
:101EE00082E090E060E070E041E050E00E946B082A
:101EF00089810E943B0D0F90CF91DF910895DF9370
:101F0000CF9300D0CDB7DEB79A8389830AC0E98129
:101F1000FA8180810E946A0F89819A8101969A8351
:101F20008983E981FA818081882389F70F900F9056
:101F3000CF91DF910895DF93CF93CDB7DEB7679749
:101F40000FB6F894DEBF0FBECDBF8F8B19821CC0B9
:101F50008F899AE0692F0E942B18892F8A838981A3
:101F6000282F30E08A81482F405DCE010396FC0186
:101F7000E20FF31F408389818F5F89838F899AE005
:101F8000692F0E942B188F8B8F89882309F78981ED
:101F90008150898367960FB6F894DEBF0FBECDBF20
:101FA000CF91DF910895DF93CF9300D00F92CDB7FB
:101FB000DEB78A836B838A81882F90E00024969510
:101FC00087950794969587950794982F802D982F3D
:101FD0008B81890F898389818068898389810E94A7
:101FE000260D0F900F900F90CF91DF910895DF9302
:101FF000CF9300D000D0CDB7DEB78A837C836B83CC
:102000008A810E94260D19820DC0EB81FC8180819E
:102010000E946A0F8B819C8101969C838B838981AE
:102020008F5F89838981883080F30F900F900F90A4
:102030000F90CF91DF910895DF93CF93CDB7DEB7A7
:102040002E970FB6F894DEBF0FBECDBF81E00E9481
:10205000260D80E090E0A0E0B0E48B879C87AD8700
:10206000BE876B857C858D859E8520E030E04AEFBC
:1020700054E40E941702DC01CB018F839887A98763
:10208000BA876F81788589859A8520E030E040E8BD
:102090005FE30E941D0488232CF481E090E09E837E
:1020A0008D833FC06F81788589859A8520E03FEFD9
:1020B0004FE757E40E94BD0318164CF56B857C85ED
:1020C0008D859E8520E030E040E251E40E941702B9
:1020D000DC01CB01BC01CD010E944100DC01CB0140
:1020E0009E838D830FC088EC90E09C838B838B81D3
:1020F0009C810197F1F79C838B838D819E81019751
:102100009E838D838D819E81009769F714C06F81B6
:10211000788589859A850E944100DC01CB019E83E8
:102120008D838D819E819A83898389819A8101978C
:10213000F1F79A8389832E960FB6F894DEBF0FBE0F
:10214000CDBFCF91DF9108950F931F93DF93CF936E
:10215000CDB7DEB7CB5CD0400FB6F894DEBF0FBE74
:10216000CDBF0E94BC060E945A0ACE018F589F4FD5
:10217000C755DF4F99838883C95AD04084EC90E0DB
:10218000C555DF4F99838883CB5AD04098E0C3551B
:10219000DF4F9883CD5AD040C555DF4FE881F98194
:1021A000CB5AD0400080C555DF4F88819981CB5AEA
:1021B000D0400196C555DF4F99838883CB5AD040D4
:1021C000C755DF4FE881F981C95AD0400082C75511
:1021D000DF4F88819981C95AD0400196C755DF4F9A
:1021E00099838883C95AD040C355DF4F9881CD5A0F
:1021F000D0409150C355DF4F9883CD5AD040C3553E
:10220000DF4FE881CD5AD040EE2331F69E012F58A2
:102210003F4F80E4B9010E94F70FCE0187589F4FCE
:10222000C255DF4F99838883CE5AD0408CEB90E023
:10223000C055DF4F99838883C05BD04098E0CE546F
:10224000DF4F9883C25BD040C055DF4FE881F981F2
:10225000C05BD0400080C055DF4F88819981C05B52
:10226000D0400196C055DF4F99838883C05BD04032
:10227000C255DF4FE881F981CE5AD0400082C25565
:10228000DF4F88819981CE5AD0400196C255DF4FE9
:1022900099838883CE5AD040CE54DF4F9881C25B59
:1022A000D0409150CE54DF4F9883C25BD040CE5483
:1022B000DF4FE881C25BD040EE2331F69E01275804
:1022C0003F4F88E4B9010E94F70FCE018F579F4F0F
:1022D000CD54DF4F99838883C35BD04084EB90E07B
:1022E000CB54DF4F99838883C55BD04098E0C954B5
:1022F000DF4F9883C75BD040CB54DF4FE881F98133
:10230000C55BD0400080CB54DF4F88819981C55B8D
:10231000D0400196CB54DF4F99838883C55BD04072
:10232000CD54DF4FE881F981C35BD0400082CD54AA
:10233000DF4F88819981C35BD0400196CD54DF4F38
:1023400099838883C35BD040C954DF4F9881C75BB2
:10235000D0409150C954DF4F9883C75BD040C954D7
:10236000DF4FE881C75BD040EE2331F69E012F5747
:102370003F4F80E5B9010E94F70FCE0187579F4F6D
:10238000C854DF4F99838883C85BD0408CEA90E0C3
:10239000C654DF4F99838883CA5BD04098E0C45409
:1023A000DF4F9883CC5BD040C654DF4FE881F98182
:1023B000CA5BD0400080C654DF4F88819981CA5BD8
:1023C000D0400196C654DF4F99838883CA5BD040C2
:1023D000C854DF4FE881F981C85BD0400082C854FF
:1023E000DF4F88819981C85BD0400196C854DF4F88
:1023F00099838883C85BD040C454DF4F9881CC5BFD
:10240000D0409150C454DF4F9883CC5BD040C4542B
:10241000DF4FE881CC5BD040EE2331F69E01275799
:102420003F4F88E5B9010E94F70FCE018F569F4FAD
:10243000C354DF4F99838883CD5BD04084EA90E01A
:10244000C154DF4F99838883CF5BD04098E0CF534E
:10245000DF4F9883C15CD040C154DF4FE881F981E0
:10246000CF5BD0400080C154DF4F88819981CF5B22
:10247000D0400196C154DF4F99838883CF5BD04011
:10248000C354DF4FE881F981CD5BD0400082C35453
:10249000DF4F88819981CD5BD0400196C354DF4FD7
:1024A00099838883CD5BD040CF53DF4F9881C15C47
:1024B000D0409150CF53DF4F9883C15CD040CF5371
:1024C000DF4FE881C15CD040EE2331F69E012F56EC
:1024D0003F4F80E6B9010E94F70FCE0187569F4F0C
:1024E000CE53DF4F99838883C25CD0408CE990E063
:1024F000CC53DF4F99838883C45CD04098E0CA53A3
:10250000DF4F9883C65CD040CC53DF4FE881F98120
:10251000C45CD0400080CC53DF4F88819981C45C7B
:10252000D0400196CC53DF4F99838883C45CD04060
:10253000CE53DF4FE881F981C25CD0400082CE5398
:10254000DF4F88819981C25CD0400196CE53DF4F26
:1025500099838883C25CD040CA53DF4F9881C65CA0
:10256000D0409150CA53DF4F9883C65CD040CA53C5
:10257000DF4FE881C65CD040EE2331F69E0127563E
:102580003F4F88E6B9010E94F70FCE018F559F4F4C
:10259000C953DF4F99838883C75CD04084E990E0BA
:1025A000C753DF4F99838883C95CD04098E0C553F7
:1025B000DF4F9883CB5CD040C753DF4FE881F98170
:1025C000C95CD0400080C753DF4F88819981C95CC6
:1025D000D0400196C753DF4F99838883C95CD040B0
:1025E000C953DF4FE881F981C75CD0400082C953ED
:1025F000DF4F88819981C75CD0400196C953DF4F76
:1026000099838883C75CD040C553DF4F9881CB5CEA
:10261000D0409150C553DF4F9883CB5CD040C55319
:10262000DF4FE881CB5CD040EE2331F69E012F5581
:102630003F4F80E7B9010E94F70F80E060E00E9401
:10264000D30F80E690E00E947F0F80E06DE00E9453
:10265000D30F85E00E946A0F84E00E946A0F83E036
:102660000E946A0FFE01E359FF4F80E090E4ACE165
:10267000B5E480839183A283B3838E0107591F4FF2
:10268000FE01E359FF4F608171818281938120E0D7
:1026900030E04AEF54E40E941702DC01CB01F8015C
:1026A00080839183A283B383FE01E759FF4F60814A
:1026B00071818281938120E030E040E85FE30E94F5
:1026C0001D04882344F4FE01E959FF4F81E090E0A6
:1026D0009183808364C0FE01E759FF4F608171815F
:1026E0008281938120E03FEF4FE757E40E94BD03D2
:1026F00018160CF043C0FE01E359FF4F6081718151
:102700008281938120E030E040E251E40E94170290
:10271000DC01CB018E0109591F4FBC01CD010E9484
:102720004100DC01CB01F801918380831FC0FE01D1
:10273000EB59FF4F88EC90E091838083FE01EB59C9
:10274000FF4F808191810197F1F7FE01EB59FF4F17
:1027500091838083DE01A959BF4FFE01E959FF4FE4
:1027600080819181019711969C938E93FE01E95986
:10277000FF4F808191810097D1F627C08E010959C2
:102780001F4FFE01E759FF4F608171818281938164
:102790000E944100DC01CB01F80191838083DE01BE
:1027A000AD59BF4FFE01E959FF4F808191818D9353
:1027B0009C93FE01ED59FF4F808191810197F1F7C4
:1027C000FE01ED59FF4F918380830E941C1080E031
:1027D0006FE00E94D30F83E00E946A0F81E06FE0F8
:1027E0000E94D30F82E00E946A0F81E06EE00E9497
:1027F000D30F81E00E946A0F80E06AE00E94D30F4D
:1028000081E00E946A0F81E06AE00E94D30F81E0BC
:102810000E946A0F81E06BE00E94D30F80E00E946B
:102820006A0FFE01E15AFF4F80E090E0AAE7B4E4AE
:1028300080839183A283B3838E01055A1F4FFE01CB
:10284000E15AFF4F608171818281938120E030E005
:102850004AEF54E40E941702DC01CB01F8018083A7
:102860009183A283B383FE01E55AFF4F608171819A
:102870008281938120E030E040E85FE30E941D0404
:10288000882344F4FE01E75AFF4F81E090E09183F2
:10289000808364C0FE01E55AFF4F608171818281AF
:1028A000938120E03FEF4FE757E40E94BD031816E5
:1028B0000CF043C0FE01E15AFF4F608171818281BB
:1028C000938120E030E040E251E40E941702DC01F5
:1028D000CB018E01075A1F4FBC01CD010E94410060
:1028E000DC01CB01F801918380831FC0FE01E95A0E
:1028F000FF4F88EC90E091838083FE01E95AFF4FFF
:10290000808191810197F1F7FE01E95AFF4F918390
:102910008083DE01A75ABF4FFE01E75AFF4F808137
:102920009181019711969C938E93FE01E75AFF4F78
:10293000808191810097D1F627C08E01075A1F4FE1
:10294000FE01E55AFF4F60817181828193810E946F
:102950004100DC01CB01F80191838083DE01AB5A99
:10296000BF4FFE01E75AFF4F808191818D939C9369
:10297000FE01EB5AFF4F808191810197F1F7FE0133
:10298000EB5AFF4F9183808381E06BE00E94D30F6D
:1029900080E20E946A0F81E06CE00E94D30F80E029
:1029A0000E946A0FFE01EF5AFF4F80E090E0AAE715
:1029B000B4E480839183A283B3838E01035B1F4FB2
:1029C000FE01EF5AFF4F608171818281938120E087
:1029D00030E04AEF54E40E941702DC01CB01F80119
:1029E00080839183A283B383FE01E35BFF4F608109
:1029F00071818281938120E030E040E85FE30E94B2
:102A00001D04882344F4FE01E55BFF4F81E090E064
:102A10009183808364C0FE01E35BFF4F608171811D
:102A20008281938120E03FEF4FE757E40E94BD038E
:102A300018160CF043C0FE01EF5AFF4F6081718100
:102A40008281938120E030E040E251E40E9417024D
:102A5000DC01CB018E01055B1F4FBC01CD010E9443
:102A60004100DC01CB01F801918380831FC0FE018E
:102A7000E75BFF4F88EC90E091838083FE01E75B8A
:102A8000FF4F808191810197F1F7FE01E75BFF4FD6
:102A900091838083DE01A55BBF4FFE01E55BFF4FA5
:102AA00080819181019711969C938E93FE01E55B45
:102AB000FF4F808191810097D1F627C08E01055B81
:102AC0001F4FFE01E35BFF4F608171818281938123
:102AD0000E944100DC01CB01F80191838083DE017B
:102AE000A95BBF4FFE01E55BFF4F808191818D9314
:102AF0009C93FE01E95BFF4F808191810197F1F783
:102B0000FE01E95BFF4F9183808381E06CE00E94CE
:102B1000D30F80E20E946A0F81E06DE00E94D30F24
:102B200080E00E946A0FFE01ED5BFF4F80E090E0C5
:102B3000AAE7B4E480839183A283B3838E01015C0E
:102B40001F4FFE01ED5BFF4F608171818281938198
:102B500020E030E04AEF54E40E941702DC01CB0190
:102B6000F80180839183A283B383FE01FF96608185
:102B700071818281938120E030E040E85FE30E9430
:102B80001D0488232CF481E090E09EAF8DAF46C0F9
:102B9000FE01FF96608171818281938120E03FEF89
:102BA0004FE757E40E94BD03181664F5FE01ED5B84
:102BB000FF4F608171818281938120E030E040E2AB
:102BC00051E40E941702DC01CB01BC01CD010E943F
:102BD0004100DC01CB019EAF8DAF0FC088EC90E0CF
:102BE0009CAF8BAF8BAD9CAD0197F1F79CAF8BAFDA
:102BF0008DAD9EAD01979EAF8DAF8DAD9EAD009713
:102C000069F716C0FE01FF96608171818281938110
:102C10000E944100DC01CB019EAF8DAF8DAD9EAD1A
:102C20009AAF89AF89AD9AAD0197F1F79AAF89AFA5
:102C300081E06DE00E94D30F80E20E946A0F80E085
:102C40006CE00E94D30F80E00E946A0F80E090E069
:102C5000AAE7B4E48DAB9EABAFABB8AF6DA97EA9CC
:102C60008FA998AD20E030E04AEF54E40E941702AB
:102C7000DC01CB0189AB9AABABABBCAB69A97AA940
:102C80008BA99CA920E030E040E85FE30E941D048E
:102C900088232CF481E090E098AB8FA73FC069A90E
:102CA0007AA98BA99CA920E03FEF4FE757E40E9447
:102CB000BD0318164CF56DA97EA98FA998AD20E02B
:102CC00030E040E251E40E941702DC01CB01BC017C
:102CD000CD010E944100DC01CB0198AB8FA70FC052
:102CE00088EC90E09EA78DA78DA59EA50197F1F792
:102CF0009EA78DA78FA598A9019798AB8FA78FA5A1
:102D000098A9009769F714C069A97AA98BA99CA909
:102D10000E944100DC01CB0198AB8FA78FA598A939
:102D20009CA78BA78BA59CA50197F1F79CA78BA7C8
:102D300080E06AE00E94D30F80E20E946A0F80E088
:102D40006BE00E94D30F81E00E946A0F80E090E068
:102D5000AAE7B4E48FA398A7A9A7BAA76FA178A5FB
:102D600089A59AA520E030E04AEF54E40E941702BA
:102D7000DC01CB018BA39CA3ADA3BEA36BA17CA163
:102D80008DA19EA120E030E040E85FE30E941D0499
:102D900088232CF481E090E09AA389A33FC06BA123
:102DA0007CA18DA19EA120E03FEF4FE757E40E9458
:102DB000BD0318164CF56FA178A589A59AA520E04A
:102DC00030E040E251E40E941702DC01CB01BC017B
:102DD000CD010E944100DC01CB019AA389A30FC061
:102DE00088EC90E098A38F8F8F8D98A10197F1F7D1
:102DF00098A38F8F89A19AA101979AA389A389A1EA
:102E00009AA1009769F714C06BA17CA18DA19EA126
:102E10000E944100DC01CB019AA389A389A19AA158
:102E20009E8F8D8F8D8D9E8D0197F1F79E8F8D8F4B
:102E300080E06CE00E94D30F80E20E946A0F80E085
:102E40006DE00E94D30F80E00E946A0F80E090E066
:102E5000AAE7B4E4898F9A8FAB8FBC8F698D7A8D86
:102E60008B8D9C8D20E030E04AEF54E40E941702E5
:102E7000DC01CB018D8B9E8BAF8BB88F6D897E89EA
:102E80008F89988D20E030E040E85FE30E941D04C8
:102E900088232CF481E090E09C8B8B8B3FC06D8964
:102EA0007E898F89988D20E03FEF4FE757E40E949D
:102EB000BD0318164CF5698D7A8D8B8D9C8D20E0A5
:102EC00030E040E251E40E941702DC01CB01BC017A
:102ED000CD010E944100DC01CB019C8B8B8B0FC08C
:102EE00088EC90E09A8B898B89899A890197F1F710
:102EF0009A8B898B8B899C8901979C8B8B8B8B8977
:102F00009C89009769F714C06D897E898F89988D97
:102F10000E944100DC01CB019C8B8B8B8B899C89AF
:102F2000988B8F878F8598890197F1F7988B8F877A
:102F300080E06DE00E94D30F80E20E946A0F80E083
:102F40006EE00E94D30F80E00E946A0F80E090E064
:102F5000AAE7B4E48B879C87AD87BE876B857C85A9
:102F60008D859E8520E030E04AEF54E40E941702F0
:102F7000DC01CB018F839887A987BA876F81788519
:102F800089859A8520E030E040E85FE30E941D04D7
:102F900088232CF481E090E09E838D833FC06F8175
:102FA000788589859A8520E03FEF4FE757E40E94B6
:102FB000BD0318164CF56B857C858D859E8520E0BC
:102FC00030E040E251E40E941702DC01CB01BC0179
:102FD000CD010E944100DC01CB019E838D830FC097
:102FE00088EC90E09C838B838B819C810197F1F727
:102FF0009C838B838D819E8101979E838D838D81A0
:103000009E81009769F714C06F81788589859A85BC
:103010000E944100DC01CB019E838D838D819E81C6
:103020009A83898389819A810197F1F79A838983A9
:1030300080E06EE00E94D30F0E941C108EE690E0AC
:103040000E947F0F81E060E00E94D30F8DE790E047
:103050000E947F0FFFCF991B79E004C0991F96173C
:1030600008F0961B881F7A95C9F7809508952F92CE
:103070003F924F925F926F927F928F929F92AF9208
:10308000BF92CF92DF92EF92FF920F931F93CF9355
:10309000DF93CDB7DEB7CA1BDB0B0FB6F894DEBFEC
:1030A0000FBECDBF09942A88398848885F846E8412
:1030B0007D848C849B84AA84B984C884DF80EE805C
:1030C000FD800C811B81AA81B981CE0FD11D0FB665
:1030D000F894DEBF0FBECDBFED010895F894FFCF89
:1030E00049276D20416C6973736F6E202000426523
:1030F000726E6172646F2053696C766100212121C8
:10310000474F4F4F4F4F4F414C21210000000000CF
:103110000000000000040A040E150E111F1010100C
:10312000101010101F00040A041F040A1F010101DF
:1031300001010101010101010101011F00040A0453
:0C3140001F040A11000000040E1B0E0406
:00000001FF
